:100000000C942A000C9434000C9434000C943400AA
:100010000C9434000C9434000C9434000C94340090
:100020000C9434000C9434000C9434000C94340080
:100030000C9434000C9434000C9434000C94340070
:100040000C9434000C9434000C9434000C94340060
:100050000C94340011241FBECFE5D8E0DEBFCDBF25
:100060000E944C000C94E9000C9400009DEC899FC8
:10007000912D1124969596959695392F330F232F10
:10008000220F220F230F821B282F30E1939FC001E4
:100090001124822B8BBB08958FEF8ABB14BA85BBCA
:1000A00011BA82BB87BB8EE10E943600F12C0EE1B3
:1000B00011E0CEE1D0E001C00C2F809906C081E0B4
:1000C000D11180E0D82F809BFECFD11138C0849908
:1000D00007C081E0111180E0182F849BFECFF12C26
:1000E000111120C0F1101EC0C1508C2F0E9436008B
:1000F0002FEF80E792E0215080409040E1F700C070
:100100000000C11112C082E088BB2FEF89E698E1A0
:10011000215080409040E1F700C0000018BAFF2451
:10012000F39403C08C2F0E9436009C99C6CF802F79
:100130000E9436009C9BFECFC02F11E0BECF9C9941
:1001400023C0CF5FC43609F4C0E02FEF82E597E00B
:10015000215080409040E1F700C000008C2F0E94A9
:10016000360010C0CF5FC43609F4C0E02FE788E343
:1001700091E0215080409040E1F700C000008C2FBA
:100180000E9436009C9BEECF849996CFC15008F414
:10019000C3E62FEF82E597E0215080409040E1F7E1
:1001A00000C000008C2F0E9436000FC0C15008F420
:1001B000C3E62FE788E391E0215080409040E1F7CB
:1001C00000C000008C2F0E943600849BEFCF0C2FC4
:0601D00074CFF894FFCF8C
:00000001FF
