:100000000C942A000C9447000C9447000C94470071
:100010000C9447000C9447000C94B8070C946607A6
:100020000C948F070C943D070C9477060C944700B2
:100030000C9447000C9447000C9447000C94470024
:100040000C9447000C9447000C9447000C94470014
:100050000C94470011241FBECFE5D8E0DEBFCDBF12
:1000600011E0A0E6B0E0E2E4F4E102C005900D92F8
:10007000A234B107D9F721E0A2E4B1E001C01D929A
:10008000AC35B207E1F70E94CE000C941F0A0C9425
:10009000000061E08BE00E9433050E9445060E944B
:1000A00053060E944902089580E00E94760281E092
:1000B0000E94630282E00E94760283E00E94630253
:1000C000089580E00E94630281E00E94760282E04F
:1000D0000E94630283E00E947602089580914201AB
:1000E000813071F480E00E94890281E00E948902DF
:1000F00082E00E94890283E00E94890210924201FC
:1001000008950E9461002FEF8EE994E22150804013
:100110009040E1F700C000000E946E0008950E9428
:1001200054002FEF8EE994E2215080409040E1F797
:1001300000C000000E946E0008950E945B060895B2
:1001400080914201811129C00E94630281E00E94D6
:10015000630282E00E94630283E00E94630282E302
:100160000E949D002FEF82E597E021508040904053
:10017000E1F700C0000080E50E949D002FEF82E5BE
:1001800097E0215080409040E1F700C0000084E6F5
:100190000E949D0081E08093420108950E945003D7
:1001A0000E94BF040E9475048AE50E9480040E9498
:1001B00049000E94DF04C82F61E081E00E949F0394
:1001C00088E690E00E948A032C2F30E040E050E067
:1001D00060E070E080E090E00E94B70382E790E08A
:1001E0000E948A036FE081E00E949F0383E091E018
:1001F0000E948A0361E082E00E949F03CE3108F0F2
:1002000041C10E946B0484E790E00E948A030E942F
:100210006E002FEF83ED90E3215080409040E1F796
:1002200000C000000E946B048FE790E00E948A03E8
:1002300080E00E94800461E082E00E949F0383E9E5
:1002400090E00E948A0320E030E040E050E060E06F
:1002500070E080E090E00E94B7038FED0E9487037A
:1002600082E790E00E948A0362E181E00E949F039E
:100270002FEF83ED90E3215080409040E1F700C0E4
:1002800000000E946B0482EA90E00E948A030E94B0
:10029000DF04C82F61E082E00E949F0385EB90E0BD
:1002A0000E948A032C2F30E040E050E060E070E0D4
:1002B00080E090E00E94B70382E790E00E948A030A
:1002C00062E182E00E949F0383E091E00E948A0342
:1002D0002FEF83ED90E3215080409040E1F700C084
:1002E00000000E946B0485EC90E00E948A0384EB7E
:1002F0000E94800461E082E00E949F0383E990E015
:100300000E948A0324EB30E040E050E060E070E0BF
:1003100080E090E00E94B7038FED0E94870382E7A0
:1003200090E00E948A0362E181E00E949F032FEF28
:1003300083ED90E3215080409040E1F700C0000041
:100340000E946B0482ED90E00E948A030E94DF0409
:10035000D82F61E082E00E949F0384EE90E00E942B
:100360008A032D2F30E040E050E060E070E080E054
:1003700090E00E94B70382E790E00E948A0362E166
:1003800082E00E949F0383E091E00E948A032FEFA6
:1003900083ED90E3215080409040E1F700C00000E1
:1003A0000E946B0483EF90E00E948A038AE50E941A
:1003B00080042FEF83ED90E3215080409040E1F7DF
:1003C00000C000000E946B0485EB90E00E948A034D
:1003D0002C2F30E040E050E060E070E080E090E002
:1003E0000E94B70382E091E00E948A0361E082E00C
:1003F0000E949F0386E091E00E948A032D2F30E047
:1004000040E050E060E070E080E090E00E94B703E0
:1004100082E091E00E948A03CD17C0F0CF31B0F0A6
:1004200063E083E00E949F0386E191E00E948A03DB
:100430000E9481002FEF83ED90E321508040904097
:10044000E1F700C000000E946B04B3CECD1708F0A6
:10045000B0CEDF3108F4ADCE63E083E00E949F03AD
:1004600083E291E00E948A030E948F002FEF83EDC8
:1004700090E3215080409040E1F700C000000E94CE
:100480006B0497CE8FE291E00E948A030E94A00045
:1004900090CE1F93CF93DF9310E00FC0C12FD0E019
:1004A000CC0FDD1FC05ADF4F61E088810E94330509
:1004B00061E089810E9433051F5F143078F3DF917A
:1004C000CF911F910895CF93DF93C82FD0E0CC0F29
:1004D000DD1FC05ADF4F61E088810E94BA0560E0ED
:1004E00089810E94BA05DF91CF910895CF93DF9360
:1004F000C82FD0E0CC0FDD1FC05ADF4F60E08881ED
:100500000E94BA0561E089810E94BA05DF91CF910E
:100510000895CF93DF93C82FD0E0CC0FDD1FC05AD2
:10052000DF4F61E088810E94BA0561E089810E9405
:10053000BA05DF91CF910895CF93C82F60E083E093
:100540000E94BA05C4FB662760F988E00E94BA05DC
:10055000C5FB662760F989E00E94BA05C6FB6627DD
:1005600060F98AE00E94BA056C2F661F6627661F35
:100570008CE00E94BA0561E082E00E94BA058FEC2F
:1005800097E00197F1F700C0000060E082E00E9470
:10059000BA056C2F617088E00E94BA05C1FB66271E
:1005A00060F989E00E94BA05C2FB662760F98AE01B
:1005B0000E94BA05C3FB662760F98CE00E94BA0569
:1005C00061E082E00E94BA058FEC97E00197F1F7B5
:1005D00000C0000060E082E00E94BA058FEC97E066
:1005E0000197F1F700C00000CF910895CF93C82F75
:1005F00061E083E00E94BA05C4FB662760F988E0E9
:100600000E94BA05C5FB662760F989E00E94BA0519
:10061000C6FB662760F98AE00E94BA056C2F661F48
:100620006627661F8CE00E94BA0561E082E00E94A6
:10063000BA058FEC97E00197F1F700C0000060E089
:1006400082E00E94BA056C2F617088E00E94BA05B2
:10065000C1FB662760F989E00E94BA05C2FB6627E4
:1006600060F98AE00E94BA05C3FB662760F98CE056
:100670000E94BA0561E082E00E94BA058FEC97E023
:100680000197F1F700C0000060E082E00E94BA0527
:100690008FEC97E00197F1F700C00000CF9108952B
:1006A00061E083E00E94330561E082E00E9433054F
:1006B00061E088E00E94330561E089E00E94330533
:1006C00061E08AE00E94330561E08CE00E9433051E
:1006D0002FE788E391E0215080409040E1F700C08F
:1006E000000082E00E949C0288E20E949C028CE052
:1006F0000E949C0281E00E949C028FEC97E001978F
:10070000F1F700C0000086E00E949C0208950E945C
:10071000F60208950F931F93CF93009761F08C0119
:10072000C0E003C00E948703CF5FF801EC0FF11D0A
:1007300080818111F7CFCF911F910F910895813062
:1007400019F48FE7860F10C0823019F48FEB860FF3
:100750000BC0833019F483E9860F06C0843019F486
:1007600083ED860F01C080E80E949C0208952F92BD
:100770003F924F925F926F927F928F929F92AF9231
:10078000BF92CF92DF92EF92FF920F931F93CF937E
:10079000DF93CDB7DEB767970FB6F894DEBF0FBE15
:1007A000CDBF2D8B3E8B4F8B852E762E672E382E10
:1007B000292EA0E00E94130A19F480E30E94870307
:1007C0002D893E894F89582D672D762D832D922DA9
:1007D000A0E00E94130AACF48DE20E9487032D89E9
:1007E0003E894F89582D672D762D832D922D0E949D
:1007F000CC092D8B3E8B4F8B852E762E672E382E77
:10080000292E912C32C0492C512C0F2EFAE0AF2EFC
:10081000F02DB12CC12CD12CE12CF12C00E010E0FA
:100820002D893E894F89582D672D762D832D922D48
:100830000E943C09E1E0F0E0EC0FFD1FE40DF51D26
:10084000205D20832D893E894F89582D672D762D77
:10085000832D922D0E943E092D8B3E8B4F8B852E32
:10086000762E672E382E292E93942D893E894F8916
:10087000582D672D762D832D922DA0E00E94130A0E
:1008800009F00CF69A940CC0E1E0F0E0EC0FFD1FCB
:10089000E90DF11D97FCFA9580810E9487039A94D7
:1008A000992094F767960FB6F894DEBF0FBECDBFC0
:1008B000DF91CF911F910F91FF90EF90DF90CF903C
:1008C000BF90AF909F908F907F906F905F904F9070
:1008D0003F902F90089581E00E949C028FEC97E05A
:1008E0000197F1F700C00000089561E08CE10E94DB
:1008F000330587EE93E00E943A070E94410608956F
:10090000282F30E0A8EEB3E00E942D0924EB30E060
:1009100040E050E00E940B09C90189519C4F0E94A0
:100920003A07089580915B018F5F80935B01089582
:100930008091470181110FC00E94100790934601DA
:100940008093450110925B0181E00E94030781E0E2
:1009500080934701089580914701813079F40E9486
:100960001007909344018093430180915B01809331
:100970005A010E94FB0682E08093470108950E947D
:10098000D30660E08EE10E94330561E08FE00E94B3
:10099000330580E00E94030768E974E081E00E946B
:1009A000130762E974E080E00E9413070E94F706D3
:1009B0000E94FF060E94F0060E9441060895CF9211
:1009C000DF92EF92FF92CF93DF93109247010E9444
:1009D000F70680E00E94030761E08FE00E94BA05FD
:1009E0002AE12A95F1F700C060E08FE00E94BA0585
:1009F000809147018230E0F3C0914301D0914401DE
:100A00008091450190914601C81BD90BF0905A0185
:100A10000E9437079C01F29EC001F39E900D1124A5
:100A2000C80FD91F0E9432076B017C01BE0180E014
:100A300090E00E941008A70196010E9476080E948B
:100A4000E1079B01AFE9B6E40E942D0992958295DA
:100A50008F7089279F708927DF91CF91FF90EF904A
:100A6000DF90CF900895982F9695969596958770DC
:100A7000662309F43FC0613009F07BC0913099F0E2
:100A800028F09230E9F0933041F108954AB321E023
:100A900030E0B90102C0660F771F8A95E2F7CB01FB
:100AA000842B8ABB089547B321E030E0B90102C02E
:100AB000660F771F8A95E2F7CB01842B87BB0895D9
:100AC00044B321E030E0B90102C0660F771F8A9578
:100AD000E2F7CB01842B84BB089541B321E030E0E1
:100AE000B90102C0660F771F8A95E2F7CB01842B0C
:100AF00081BB08959130A1F028F09230F9F0933045
:100B000059F108954AB321E030E0B90102C0660FFF
:100B1000771F8A95E2F7CB01809584238ABB0895DD
:100B200047B321E030E0B90102C0660F771F8A9514
:100B3000E2F7CB018095842387BB089544B321E07D
:100B400030E0B90102C0660F771F8A95E2F7CB014A
:100B50008095842384BB089541B321E030E0B9013E
:100B600002C0660F771F8A95E2F7CB018095842338
:100B700081BB0895982F96959695969587706623D4
:100B800009F43FC0613009F07BC0913099F028F042
:100B90009230E9F0933041F108954BB321E030E019
:100BA000B90102C0660F771F8A95E2F7CB01842B4B
:100BB0008BBB089548B321E030E0B90102C0660F55
:100BC000771F8A95E2F7CB01842B88BB089545B344
:100BD00021E030E0B90102C0660F771F8A95E2F785
:100BE000CB01842B85BB089542B321E030E0B901ED
:100BF00002C0660F771F8A95E2F7CB01842B82BB78
:100C000008959130A1F028F09230F9F0933059F125
:100C100008954BB321E030E0B90102C0660F771FA1
:100C20008A95E2F7CB01809584238BBB089548B366
:100C300021E030E0B90102C0660F771F8A95E2F724
:100C4000CB018095842388BB089545B321E030E033
:100C5000B90102C0660F771F8A95E2F7CB01809534
:100C6000842385BB089542B321E030E0B90102C07E
:100C7000660F771F8A95E2F7CB018095842382BBAC
:100C800008958FB780688FBF089583B7806483BF4E
:100C900083B7886083BF83B78F7C83BF83B780624D
:100CA00083BF82E0089583B7887F83BF83B7826064
:100CB00083BF82E008958536C0F4811104C081E0CD
:100CC0008CBF82E00895282F30E0322F22273695FE
:100CD000279536952795ABE7B4E10E942D099695A7
:100CE000879581508CBF82E0089580E008951F921F
:100CF0000F920FB60F9211242F933F934F935F9350
:100D00006F937F938F939F93AF93BF93EF93FF93D3
:100D10008091480190914901A0914A01B0914B0105
:100D20000196A11DB11D8093480190934901A093A4
:100D30004A01B0934B0140914E0150914F01609197
:100D40005001709151014F5F5F4F6F4F7F4F409344
:100D50004E0150934F016093500170935101892BC4
:100D60008A2B8B2B79F41092480110924901109232
:100D70004A0110924B01E0914C01F0914D013097E6
:100D800009F00995FF91EF91BF91AF919F918F91DC
:100D90007F916F915F914F913F912F910F900FBE77
:100DA0000F901F9018958FB581608FBD8FB58260B1
:100DB0008FBD8EB588608EBD8EB580618EBD8FE192
:100DC0009EE49BBD8ABD8FB58F7B8FBD8FB58F771E
:100DD0008FBD8FB58F7E8FBD8FB580628FBD08951B
:100DE0008EB5887F8EBD8EB582608EBD089589B721
:100DF000806289BF089589B78F7D89BF089589B7BB
:100E0000846089BF0895882319F0813029F00895FE
:100E10008EB580648EBD08958EB58F7B8EBD08958E
:100E200086B597B5089561157105D9F0813059F0EF
:100E300028F0823069F0833081F008957093590171
:100E4000609358010895709353016093520108957F
:100E50007093570160935601089570935501609304
:100E60005401089560E070E080E89FE308958FE109
:100E70009EE4089599BD88BD08951F920F920FB604
:100E80000F9211242F933F934F935F936F937F9310
:100E90008F939F93AF93BF93EF93FF93E09158018C
:100EA000F0915901309709F00995FF91EF91BF91A9
:100EB000AF919F918F917F916F915F914F913F91F2
:100EC0002F910F900FBE0F901F9018951F920F92A9
:100ED0000FB60F9211242F933F934F935F936F930D
:100EE0007F938F939F93AF93BF93EF93FF93E09183
:100EF0005601F0915701309709F00995FF91EF9154
:100F0000BF91AF919F918F917F916F915F914F9121
:100F10003F912F910F900FBE0F901F9018951F9229
:100F20000F920FB60F9211242F933F934F935F931D
:100F30006F937F938F939F93AF93BF93EF93FF93A1
:100F4000E0915401F0915501309709F00995FF9116
:100F5000EF91BF91AF919F918F917F916F915F9131
:100F60004F913F912F910F900FBE0F901F901895AA
:100F70001F920F920FB60F9211242F933F934F930E
:100F80005F936F937F938F939F93AF93BF93EF93F1
:100F9000FF93E0915201F0915301309709F00995C8
:100FA000FF91EF91BF91AF919F918F917F916F9141
:100FB0005F914F913F912F910F900FBE0F901F9017
:100FC00018950E94550888F09F5798F0B92F9927D7
:100FD000B751B0F0E1F0660F771F881F991F1AF024
:100FE000BA95C9F714C0B13091F00E946F08B1E012
:100FF00008950C946F08672F782F8827B85F39F011
:10100000B93FCCF3869577956795B395D9F73EF4BC
:1010100090958095709561957F4F8F4F9F4F089564
:10102000E89409C097FB3EF4909580957095619582
:101030007F4F8F4F9F4F9923A9F0F92F96E9BB2738
:101040009395F695879577956795B795F111F8CFB4
:10105000FAF4BB0F11F460FF1BC06F5F7F4F8F4F1F
:101060009F4F16C0882311F096E911C0772321F015
:101070009EE8872F762F05C0662371F096E8862FAD
:1010800070E060E02AF09A95660F771F881FDAF704
:10109000880F9695879597F9089557FD9058440FB6
:1010A000551F59F05F3F71F04795880F97FB991FC7
:1010B00061F09F3F79F08795089512161306140684
:1010C000551FF2CF4695F1DF08C016161706180611
:1010D000991FF1CF86957105610508940895E894EC
:1010E000BB2766277727CB0197F908950E948908C7
:1010F0000C94FA080E94EC0838F00E94F30820F0E3
:10110000952311F00C94E3080C94E90811240C9435
:1011100070080E944D0870F3959FC1F3950F50E041
:10112000551F629FF001729FBB27F00DB11D639F99
:10113000AA27F00DB11DAA1F649F6627B00DA11D3F
:10114000661F829F2227B00DA11D621F739FB00DE5
:10115000A11D621F839FA00D611D221F749F332755
:10116000A00D611D231F849F600D211D822F762FEE
:101170006A2F11249F5750409AF0F1F088234AF0CB
:10118000EE0FFF1FBB1F661F771F881F9150504037
:10119000A9F79E3F510580F00C94E3080C94700869
:1011A0005F3FE4F3983ED4F3869577956795B795BE
:1011B000F795E7959F5FC1F7FE2B880F911D9695D8
:1011C000879597F9089597F99F6780E870E060E048
:1011D00008959FEF80EC089500240A9416161706D0
:1011E00018060906089500240A9412161306140618
:1011F00005060895092E0394000C11F4882352F07B
:10120000BB0F40F4BF2B11F460FF04C06F5F7F4F32
:101210008F4F9F4F0895A1E21A2EAA1BBB1BFD0101
:101220000DC0AA1FBB1FEE1FFF1FA217B307E407C5
:10123000F50720F0A21BB30BE40BF50B661F771F1D
:10124000881F991F1A9469F76095709580959095FD
:101250009B01AC01BD01CF010895A29FB001B39FD6
:10126000C001A39F700D811D1124911DB29F700DAF
:10127000811D1124911D0895689401C0E894F92FEF
:10128000F12B12F00C947009A0E0B0E0EAE4F9E070
:101290000C94E209092E059422F40E94CC09112332
:1012A00092F4F0E80F26FFEFE094F094009510958B
:1012B000B094C094D094A194BF0ACF0ADF0AEF0A79
:1012C000FF0A0F0B1F0B0E947B0907FC0E94CC0931
:1012D000CDB7DEB7ECE00C94FE09689401C0E89449
:1012E0008F929F92CF93DF930E947B09DF91CF91E2
:1012F0009F908F90089588249924F401E401B0E42C
:101300009F93AA279A158B049C04ED05FE05CF0533
:10131000D007A10798F4AD2FDC2FCF2FFE2FE92D9A
:10132000982C892E982F872F762F652F542F432F97
:10133000322F2227B85031F7BF9127C01B2EBF9103
:10134000BB27220F331F441F551F661F771F881F9F
:10135000991F881C991CEE1FFF1FCC1FDD1FAA1FA1
:10136000BB1F8A149B04EC05FD05CE05DF05A00715
:10137000B10748F08A189B08EC09FD09CE09DF097E
:10138000A00BB10B21601A94E1F62EF49401AF0189
:10139000BE01CD01000C08956095709580959095E3
:1013A00030954095509521953F4F4F4F5F4F6F4F70
:1013B0007F4F8F4F9F4F08952F923F924F925F9292
:1013C0006F927F928F929F92AF92BF92CF92DF9255
:1013D000EF92FF920F931F93CF93DF93CDB7DEB7BA
:1013E000CA1BDB0B0FB6F894DEBF0FBECDBF09944E
:1013F0002A88398848885F846E847D848C849B84A5
:10140000AA84B984C884DF80EE80FD800C811B81B2
:10141000AA81B981CE0FD11D0FB6F894DEBF0FBEE1
:10142000CDBFED0108950024A7FD00942A173005D3
:101430004005500560057005800590050895F894F5
:02144000FFCFDC
:10144200101112131415161744697374616E6365D3
:10145200203D2000202020202053746F7021005452
:1014620075726E20536572766F2052696768742DAB
:101472003E3E00536572766F20416E676C65203D7B
:101482002000476574205269676874204469737448
:10149200616E63650052696768745F446973746161
:1014A2006E63653D003C3C2D5475726E204C656642
:1014B2007400476574204C656674204469737461D6
:1014C2006E6365006C6566745F44697374616E6314
:1014D200653D0044656661756C7420416E676C659C
:1014E2002E0020636D006C6566745F4469737461DD
:1014F2006E6365203D0020204D6F7665205269673E
:1015020068740020204D6F7665204C65667400205B
:10151200202020274D6F766520466F7277617264B6
:021522002700A0
:00000001FF
