:100000000C942A000C943F000C943F000C943F0089
:100010000C943F000C943F000C943F000C943F0064
:100020000C943F000C943F000C943F000C943F0054
:100030000C943F000C943F000C943F000C943F0044
:100040000C943F000C943F000C943F000C943F0034
:100050000C943F0011241FBECFE5D8E0DEBFCDBF1A
:1000600011E0A0E6B0E0E2E5FFE002C005900D92ED
:10007000A032B107D9F70E943B050C94A7070C9456
:100080000000982F9770869586958695613009F4C3
:1000900055C020F0623009F4A1C008958130C1F04C
:1000A00028F0823039F18330B9F108954AB321E064
:1000B00030E0B90102C0660F771F9A95E2F7CB01D5
:1000C000942F982B9ABB9BB3809589238BBB089563
:1000D00047B321E030E0B90102C0660F771F9A955F
:1000E000E2F7CB01942F982B97BB98B38095892387
:1000F00088BB089544B321E030E0B90102C0660F27
:10010000771F9A95E2F7CB01942F982B94BB95B368
:100110008095892385BB089541B321E030E0B90182
:1001200002C0660F771F9A95E2F7CB01942F982BA8
:1001300091BB92B38095892382BB08958130C1F031
:1001400028F0823039F18330B9F108954AB321E0C3
:1001500030E0B90102C0660F771F9A95E2F7CB0134
:100160008095942F98239ABB9BB389238BBB0895CA
:1001700047B321E030E0B90102C0660F771F9A95BE
:10018000E2F7CB018095942F982397BB98B38923EE
:1001900088BB089544B321E030E0B90102C0660F86
:1001A000771F9A95E2F7CB018095942F982394BB03
:1001B00095B3892385BB089541B321E030E0B901AF
:1001C00002C0660F771F9A95E2F7CB018095942FB6
:1001D000982391BB92B3892382BB08958130C1F0EB
:1001E00028F0823039F18330B9F108954AB321E023
:1001F00030E0B90102C0660F771F9A95E2F7CB0194
:10020000962F909594239ABB9BB3892B8BBB089513
:1002100047B321E030E0B90102C0660F771F9A951D
:10022000E2F7CB01962F9095942397BB98B3892B37
:1002300088BB089544B321E030E0B90102C0660FE5
:10024000771F9A95E2F7CB01962F9095942394BB54
:1002500095B3892B85BB089541B321E030E0B90106
:1002600002C0660F771F9A95E2F7CB01962F909503
:10027000942391BB92B3892B82BB0895982F9770DA
:100280008695869586956130E1F5813099F028F064
:100290008230E9F0833041F108954BB321E030E042
:1002A000B90102C0660F771F9A95E2F7CB01842B44
:1002B0008BBB089548B321E030E0B90102C0660F5E
:1002C000771F9A95E2F7CB01842B88BB089545B33D
:1002D00021E030E0B90102C0660F771F9A95E2F77E
:1002E000CB01842B85BB089542B321E030E0B901F6
:1002F00002C0660F771F9A95E2F7CB01842B82BB71
:10030000089561113FC08130A1F028F08230F9F0EA
:10031000833059F108954BB321E030E0B90102C0B8
:10032000660F771F9A95E2F7CB01809584238BBBEC
:10033000089548B321E030E0B90102C0660F771F8D
:100340009A95E2F7CB018095842388BB089545B345
:1003500021E030E0B90102C0660F771F9A95E2F7FD
:10036000CB018095842385BB089542B321E030E022
:10037000B90102C0660F771F9A95E2F7CB0180950D
:10038000842382BB0895282F2770869586958695AD
:10039000813079F028F08230A9F08330E1F024C078
:1003A00089B390E002C0959587952A95E2F7817010
:1003B000089586B390E002C0959587952A95E2F757
:1003C0008170089583B390E002C0959587952A9532
:1003D000E2F78170089580B390E002C0959587950B
:1003E0002A95E2F78170089580E00895CF93C0E0E8
:1003F00009C0EC2FF0E0E05AFF4F60818C2F0E9483
:100400004100CF5FC032A8F3CF910895FF920F93C0
:100410001F93CF93DF9361E08CE00E943E0161E087
:100420008DE00E943E0161E08EE00E943E0161E0AD
:100430008FE00E943E010F2EFEE4FF2EF02D10E013
:1004400027C00CE0010F60E0802F0E943E01D0E049
:1004500018C0CCE1CD0F8C2F0E94C301811110C0B8
:10046000E12FF0E0EE0FFF1FEE0FFF1FE058FF4FF0
:10047000ED0FF11DF0808C2F0E94C3018823D9F36A
:10048000DF5FD43030F361E0802F0E943E011F5FB8
:100490001430B8F28F2DDF91CF911F910F91FF9003
:1004A00008950F931F93440F551F661F771F8A01EE
:1004B0009B01000F111F221F331F000F111F221F4E
:1004C000331F400F511F621F731F90E0C097092E0A
:1004D000000CAA0BBB0B8A019B01080F191F2A1FD6
:1004E0003B1FC901B8011F910F91089590ED980F1E
:1004F0009A30C8F4440F551F661F771F440F551FCD
:10050000661F771F440F551F661F771F440F551F27
:10051000661F771F480F511D611D711D4053510902
:100520006109710993C09FEB980F963008F08EC057
:100530008334C9F128F4813461F08234F9F086C043
:10054000853409F45AC008F443C0863409F46AC0FB
:100550007DC0440F551F661F771F440F551F661F30
:10056000771F440F551F661F771F440F551F661FC7
:10057000771F465F5F4F6F4F7F4F68C0440F551F17
:10058000661F771F440F551F661F771F440F551FA7
:10059000661F771F440F551F661F771F455F5F4F0C
:1005A0006F4F7F4F53C0440F551F661F771F440F77
:1005B000551F661F771F440F551F661F771F440F77
:1005C000551F661F771F445F5F4F6F4F7F4F3EC0C1
:1005D000440F551F661F771F440F551F661F771F57
:1005E000440F551F661F771F440F551F661F771F47
:1005F000435F5F4F6F4F7F4F29C0440F551F661FEA
:10060000771F440F551F661F771F440F551F661F26
:10061000771F440F551F661F771F425F5F4F6F4F55
:100620007F4F14C0440F551F661F771F440F551F7F
:10063000661F771F440F551F661F771F440F551FF6
:10064000661F771F415F5F4F6F4F7F4FCB01BA012E
:10065000089590ED980F923060F4440F551F661F77
:10066000771F480F511D611D711D405351096109CC
:100670007109CB01BA010895CF93C82F60E088E0DB
:100680000E943E016C2F661F6627661F81E00E9454
:100690003E01C6FB662760F982E00E943E01C5FB71
:1006A000662760F983E00E943E01C4FB662760F97B
:1006B00084E00E943E0161E089E00E943E018FECEF
:1006C00097E00197F1F700C0000060E089E00E9428
:1006D0003E01C3FB662760F981E00E943E01C2FB38
:1006E000662760F982E00E943E01C1FB662760F93F
:1006F00083E00E943E016C2F617084E00E943E0105
:1007000061E089E00E943E018FEC97E00197F1F7EC
:1007100000C0000060E089E00E943E01CF91089592
:10072000CF93C82F61E088E00E943E016C2F661FC6
:100730006627661F81E00E943E01C6FB662760F9BE
:1007400082E00E943E01C5FB662760F983E00E94BB
:100750003E01C4FB662760F984E00E943E0161E02F
:1007600089E00E943E018FEC97E00197F1F700C00D
:10077000000060E089E00E943E01C3FB662760F94B
:1007800081E00E943E01C2FB662760F982E00E9480
:100790003E01C1FB662760F983E00E943E016C2F99
:1007A000617084E00E943E0161E089E00E943E01A8
:1007B0008FEC97E00197F1F700C0000060E089E05E
:1007C0000E943E01CF9108952FE788E391E02150E8
:1007D00080409040E1F700C0000082E00E943C03AE
:1007E00088E20E943C038FEC97E00197F1F700C08C
:1007F00000008CE00E943C038FEC97E00197F1F73A
:1008000000C0000081E00E943C038FE99FE0019757
:10081000F1F700C0000086E00E943C03089581E0EB
:100820000E943C038FE99FE00197F1F700C00000B0
:1008300008950E94900308950F931F93CF938A0108
:10084000811106C080E8860F0E943C03C0E008C00A
:1008500080EC860F0E943C03F9CF0E941904CF5F01
:10086000F801EC0FF11D80818111F7CFCF911F911D
:100870000F9108952F923F924F925F926F927F92C5
:100880008F929F92AF92BF92CF92DF92EF92FF92A0
:100890000F931F93CF93DF93CDB7DEB763970FB658
:1008A000F894DEBF0FBECDBF298B3A8B4B8B852EC4
:1008B000762E672E382E292EA0E00E949B0721F469
:1008C00080E30E9419046DC029893A894B89A0E010
:1008D0000E949B07ACF48DE20E94190429893A8991
:1008E0004B89582D672D762D832D922D0E9454070C
:1008F000298B3A8B4B8B852E762E672E382E292E00
:10090000912C32C0492C512C0F2EFAE0AF2EF02D35
:10091000B12CC12CD12CE12CF12C00E010E0298964
:100920003A894B89582D672D762D832D922D0E9463
:10093000C406E1E0F0E0EC0FFD1FE40DF51D205DC5
:10094000208329893A894B89582D672D762D832D4F
:10095000922D0E94C606298B3A8B4B8B852E762EC4
:10096000672E382E292E939429893A894B89582D40
:10097000672D762D832D922DA0E00E949B0709F014
:100980000CF69A940CC0E1E0F0E0EC0FFD1FE90DCD
:10099000F11D97FCFA9580810E9419049A94992080
:1009A00094F763960FB6F894DEBF0FBECDBFDF910C
:1009B000CF911F910F91FF90EF90DF90CF90BF905C
:1009C000AF909F908F907F906F905F904F903F90EF
:1009D0002F9008950F931F93CF938C01C0E003C015
:1009E0000E941904CF5FF801EC0FF11D8081811185
:1009F000F7CFCF911F910F910895CF93DF93D82F09
:100A0000C7E00DC08D2F90E00C2E02C09595879504
:100A10000A94E2F78170805D0E941904C150CC23D2
:100A20008CF7DF91CF910895CF93C82FCF70829527
:100A30008F708A3020F4805D0E94190403C0895CA5
:100A40000E941904CA3028F480E38C0F0E94190414
:100A500004C087E38C0F0E941904CF91089581117F
:100A600005C080E8860F0E943C03089580EC860F45
:100A70000E943C0308950E94F6010E94E40380E96D
:100A800090E00E94EA0463E081E00E942F058DE976
:100A900090E00E94EA042FEF89E698E1215080401F
:100AA0009040E1F700C000000E940F04412C512C3F
:100AB0003201C12CB12CD12CF12CE12C00E010E042
:100AC000C0E0A12CC1110EC048EA50E060E080E017
:100AD0000E941C044AEB50E060E081E00E941C048C
:100AE00010E00FC0C13069F44FEC50E060E080E0EE
:100AF0000E941C044AEB50E060E081E00E941C046C
:100B000010E00E940602D82F8E34E1F2C11122C0FB
:100B1000813311F40F5F1AC0823311F4E39416C0CD
:100B2000833311F4F39412C00E940F0440EE50E09E
:100B300060E080E00E941C042FEF89E698E12150DC
:100B400080409040E1F700C0000011E01111BACFE1
:100B5000CF5FB8CFC13009F09AC0813311F4D3947C
:100B60001AC0823311F4B39416C0833311F4C394C2
:100B700012C00E940F0440EE50E060E080E00E944E
:100B80001C042FEF89E698E1215080409040E1F766
:100B900000C0000011E0111101C0CF5F2FEF80E70E
:100BA00092E0215080409040E1F700C00000013009
:100BB00011F54FEE50E060E080E00E941C0421E05F
:100BC000B21207C04FEF50E060E081E00E941C04C9
:100BD00079CFCC2039F04FE051E060E081E00E9415
:100BE0001C0470CF81E0D8126DCF4FEE50E060E072
:100BF0000E941C0467CF91E0E91223C04FEF50E040
:100C000060E080E00E941C0421E0D21207C04FEE99
:100C100050E060E081E00E941C0454CFCC2039F009
:100C20004FE051E060E081E00E941C044BCFBB200C
:100C300009F448CF4FEF50E060E081E00E941C04CF
:100C400041CF81E0F8123ECF4FE051E060E080E01C
:100C50000E941C0491E0B91207C04FEF50E060E021
:100C600081E00E941C042ECFDD2039F04FEE50E0D1
:100C700060E081E00E941C0425CFCC2009F422CF43
:100C80004FE051E060E081E00E941C041BCFC230C5
:100C900009F018CF80ED8D0F8A3040F08FEB8D0F6B
:100CA000823020F08CEB8D0F833090F5A1100EC0B8
:100CB00063E080E00E942F0583E191E00E94EA0456
:100CC00063E080E00E942F05AA24A3948D2F0E9448
:100CD0001904013041F4B301A2018D2F0E94510289
:100CE0002B013C0115C021E0F21208C0B301A201A2
:100CF0008D2F0E9429032B013C010AC081E0E812DC
:100D000007C0B301A2018D2F0E9476022B013C0186
:100D1000DD3399F563E081E00E942F0591E0D9125F
:100D200011C073016201FF0CCC08DC2C7601242D6C
:100D3000352D462D572D6C2D7C2D8C2D9C2D0E94F4
:100D40003A040DC021E0C21204C0842D0E94FD04AB
:100D500006C081E0B81203C0842D0E94140582E110
:100D600091E00E94EA04412C512C3201C12CB12C9B
:100D7000D12CF12CE12C00E0A12CD33409F0A2CE2F
:100D80000E940F04C0E09ECE689401C0E894F92F41
:100D9000F12B12F00C94F806A0E0B0E0E2EDF6E0E2
:100DA0000C946A07092E059422F40E94540711231B
:100DB00092F4F0E80F26FFEFE094F0940095109580
:100DC000B094C094D094A194BF0ACF0ADF0AEF0A6E
:100DD000FF0A0F0B1F0B0E94030707FC0E9454071A
:100DE000CDB7DEB7ECE00C948607689401C0E894B8
:100DF0008F929F92CF93DF930E940307DF91CF9151
:100E00009F908F90089588249924F401E401B0E420
:100E10009F93AA279A158B049C04ED05FE05CF0528
:100E2000D007A10798F4AD2FDC2FCF2FFE2FE92D8F
:100E3000982C892E982F872F762F652F542F432F8C
:100E4000322F2227B85031F7BF9127C01B2EBF91F8
:100E5000BB27220F331F441F551F661F771F881F94
:100E6000991F881C991CEE1FFF1FCC1FDD1FAA1F96
:100E7000BB1F8A149B04EC05FD05CE05DF05A0070A
:100E8000B10748F08A189B08EC09FD09CE09DF0973
:100E9000A00BB10B21601A94E1F62EF49401AF017E
:100EA000BE01CD01000C08956095709580959095D8
:100EB00030954095509521953F4F4F4F5F4F6F4F65
:100EC0007F4F8F4F9F4F08952F923F924F925F9287
:100ED0006F927F928F929F92AF92BF92CF92DF924A
:100EE000EF92FF920F931F93CF93DF93CDB7DEB7AF
:100EF000CA1BDB0B0FB6F894DEBF0FBECDBF099443
:100F00002A88398848885F846E847D848C849B8499
:100F1000AA84B984C884DF80EE80FD800C811B81A7
:100F2000AA81B981CE0FD11D0FB6F894DEBF0FBED6
:100F3000CDBFED0108950024A7FD00942A173005C8
:100F40004005500560057005800590050895F894EA
:020F5000FFCFD1
:100F5200010000000000000100000000000000008D
:100F6200000000000202020200000202020202026B
:100F720037383941343536423132334443303D46D5
:100F82002048656C6C6F2041686D656400434F4E6C
:100F92005645525445522E00436F6E766572742048
:100FA20046726F6D3A2020202000312E44202032DC
:100FB2002E482020332E42202020202020200043B3
:100FC2006F6E7665727420546F3A202020202000C4
:100FD200496E76616C6964204F7065722E210044FF
:100FE2003A202020202020202020202020200048DD
:100FF2003A202020202020202020202020200042D3
:101002003A20202020202020202020202020000004
:00000001FF
