S01A0000534D4152545F484F4D455F484D495F4D43552E737265637A
S11300000C9434000C947F0B0C94A80B0C94D10B1F
S11300100C9451000C9451000C94690D0C94170D20
S11300200C94400D0C94EE0C0C94920C0C94290C32
S11300300C9451000C94D80D0C9451000C94010EA6
S11300400C9451000C9451000C9451000C945100E8
S11300500C9451003B0596051E0624062A0630061C
S11300603906DC053F06CA0611241FBECFE5D8E0D9
S1130070DEBFCDBF12E0A0E6B0E0ECE9FCE102C0D7
S113008005900D92A23AB107D9F722E0A2EAB2E0B4
S113009001C01D92A23DB207E1F70E945D010C94DC
S11300A04C0E0C94000081E08093A2020895DC01C0
S11300B090E00DC0292F30E0FD01E20FF31F5081C5
S11300C0FB01E20FF31F2081521305C09F5F9417B9
S11300D088F381E0089580E00895CF93DF93D82FCB
S11300E0CFEF1DC08091A2028130D9F08091B5027A
S11300F09091B6028830974010F0D13049F0809149
S1130100B5029091B6028438934030F0D23021F495
S113011081E08093A20205C00E949D07C82FCF3FB3
S113012009F30E94E6068FEF99EF20E0815090409A
S11301302040E1F700C000000E94EB068C2FDF9105
S1130140CF910895EF92FF920F931F93CF93DF9374
S1130150D82FF62E8FEF80936000E12C00E010E0A2
S11301600E94FC08D53011F128F4D33049F0D43082
S113017091F047C0D73081F120F1D930C1F141C0AD
S11301808AE790E00E94D9080F2EF1E3EF2EF02DBC
S113019001E211E136C083E890E00E94D9080F2EF5
S11301A0F2E3EF2EF02D02E212E12BC08CE890E096
S11301B00E94D9080F2EF3E3EF2EF02D03E213E192
S11301C020C085E990E00E94D9080F2EF4E3EF2EB9
S11301D0F02D04E214E115C08EE990E00E94D908E4
S11301E00F2EF5E3EF2EF02D05E215E10AC084EAA7
S11301F090E00E94D9080F2EF6E3EF2EF02D06E2D0
S113020016E1812F0E94C90D2FEF81EE94E0215059
S113021080409040E1F700C0000080916000813090
S113022029F481EB90E00E94D90804C084EB90E0AB
S11302300E94D90861E082E00E94EE0888EB90E019
S11302400E94D9088F2D0E946D00C82F2FEF80E7E0
S113025092E0215080409040E1F700C00000C1339B
S113026021F4802F0E94C90D19C0C23321F48E2DB0
S11302700E94C90D13C0CF3F89F0C03379F00E94AA
S1130280FC0889EC90E00E94D9082FEF84E39CE0FD
S1130290215080409040E1F700C00000C053C330BB
S11302A028F08091A202882309F45ACFDF91CF91DC
S11302B01F910F91FF90EF900895CF93DF93CDB7E7
S11302C0DEB72A970FB6F894DEBF0FBECDBF1982F2
S11302D08CE10E94060980E00E9406098FE00E94DA
S11302E006090E9412090E946E070E94E1060E94FC
S11302F09F080E94F0060E94BD0D61E080E00E940C
S1130300F60A63E570E080E00E94670B80E00E94DB
S1130310550B0E94FE0B80E00E94180C0E940B0CEF
S11303200E94FA0B80E690E00E94360E85ED90E084
S11303300E94D90861E082E00E94EE0886EE90E017
S11303400E94D9082FEF39E688E1215030408040DF
S1130350E1F700C000000E94FC0882EF90E00E94D8
S1130360D90864E082E00E94EE0886EF90E00E94E3
S1130370D9089FEF29E638E1915020403040E1F759
S113038000C000000E94FC08BE016E5F7F4F80E643
S113039090E00E9424078FE19EE40197F1F700C0EA
S11303A000008A818F3F09F0EEC081E091E00E9455
S11303B0D90861E082E00E94EE088BE091E00E949F
S11303C0D9089FEF29E638E1915020403040E1F709
S11303D000C000000E94FC0886E191E00E94D90858
S11303E061E082E00E94EE0885E291E00E94D90873
S11303F010E03FC00E949D07082F01C00FEF0F3F80
S1130400C9F30E94E6068FEF99EF20E081509040F7
S11304102040E1F700C000000E94EB06802F0E94FC
S1130420D6083FEF81EE94E0315080409040E1F7F0
S113043000C000006CE0610F82E00E94EE088AE2D6
S11304400E94D6082FEF30E782E0215030408040F0
S1130450E1F700C00000812F90E0602F80599F4F8A
S11304600E94F3068FE19EE40197F1F700C00000BB
S11304701F5F143018F20E94FC0881E391E00E948F
S1130480D9089FEF24E33CE0915020403040E1F74D
S113049000C000000E94FC088CE391E00E94D9088F
S11304A061E082E00E94EE088BE491E00E94D908AA
S11304B010E03FC00E949D07082F01C00FEF0F3FBF
S11304C0C9F30E94E6068FEF99EF20E08150904037
S11304D02040E1F700C000000E94EB06802F0E943C
S11304E0D6083FEF81EE94E0315080409040E1F730
S11304F000C000006CE0610F82E00E94EE088AE216
S11305000E94D6082FEF30E782E02150304080402F
S1130510E1F700C00000812F90E0602F80589F4FCA
S11305200E94F3068FE19EE40197F1F700C00000FA
S11305301F5F143018F20E94FC0881E391E00E94CE
S1130540D9089FEF24E33CE0915020403040E1F78C
S113055000C000000E94FC0861E080E690E00E9478
S1130560F3068FE19EE40197F1F700C0000060E01C
S113057080E990E00E94F3068FE19EE40197F1F791
S113058000C000000DC0BE016F5F7F4F80E990E0A6
S11305900E9424078FE19EE40197F1F700C0000058
S11305A0D12C8091A202813011F50E94130C10927B
S11305B0B6021092B5021092A20280E00E940E09C7
S11305C08CE10E940E090E94FC0887E591E00E94DC
S11305D0D9080E94E6069FEF29E638E191502040B1
S11305E03040E1F700C000000E94EB06D12CC12C82
S11305F00FEF30C28981813009F04CC084E18093CF
S113060061000E94FC0887E691E00E94D90861E03D
S113061082E00E94EE0885E791E00E94D9088FE00D
S11306200E940A0914E128C00E94E6068FE798E3B5
S113063021E0815090402040E1F700C000000E947A
S1130640EB0668EE73E0809161000E94330911119A
S11306500DC00E94E6063FEF89E698E131508040E4
S11306609040E1F700C000000E94EB068091610019
S113067081508093610011501123B4F610926100EF
S113068019828FE00E940E0960E080E990E00E94E8
S1130690F306C12C0E94FC0885E891E00E94D90869
S11306A061E082E00E94EE0883E991E00E94D908AB
S11306B003C00E949D07082F0F3FD9F30E94E6064E
S11306C02FEF39EF80E0215030408040E1F700C047
S11306D000000E94EB0680ED800F823088F00E94BB
S11306E0FC0883EA91E00E94D9089FEF29E638E1EB
S11306F0915020403040E1F700C000000FEFAAC144
S11307008FEF8F83888789878A878B838C838D83F8
S11307108E83003309F4CDC0013309F496C19AC124
S11307200E94FC0880EB91E00E94D90861E082E01D
S11307300E94EE088BEB91E00E94D9088FEF91EEB6
S113074024E0815090402040E1F700C0000000E028
S11307504CC00E949D07182F01C01FEF1F3FC9F313
S11307600E94E6063FEF89EF90E0315080409040D0
S1130770E1F700C000000E94EB06E02EF12CE7E058
S1130780F0E0EC0FFD1FEE0DFF1D1083812F0E9482
S1130790D6082FEF31EE84E0215030408040E1F75D
S11307A000C000006CE0600F82E00E94EE088AE264
S11307B00E94D6089FEF20E732E09150204030405D
S11307C0E1F700C0000063E070E06C0F7D1F6E0D68
S11307D07F1DC70180599F4F0E9424078FE19EE42B
S11307E00197F1F700C000000F5F043008F4B5CFA3
S11307F044E0BE016D5F7F4FCE0107960E94570013
S1130800813021F587E30E94C90D0E94FC0887EC22
S113081091E00E94D90861E082E00E94EE0880EB3A
S113082091E00E94D9089FEF24E33CE091502040DE
S11308303040E1F700C000008CE10E940A090E94E8
S11308400B0C0E94FC08C12C81E031C0C3940E94AF
S1130850FC0882ED91E00E94D90861E082E00E94E8
S1130860EE088DED91E00E94D90883E38C190E9473
S1130870D6088FEF99E628E1815090402040E1F7B7
S113088000C000000E94FC0832E03C1578F461E0EE
S113089080E990E00E94F3068FE19EE40197F1F76E
S11308A000C0000081E089830FEFD4C08D2D0FEFCD
S11308B001C08D2D813009F033CFD82ECBC00E94DA
S11308C0FC0889EE91E00E94D90861E082E00E9470
S11308D0EE0884EF91E00E94D9089FEF21EE34E006
S11308E0915020403040E1F700C0000000E04CC0CF
S11308F00E949D07182F01C01FEF1F3FC9F30E94DC
S1130900E6068FEF99EF20E0815090402040E1F718
S113091000C000000E94EB06E02EF12CE7E0F0E0BE
S1130920EC0FFD1FEE0DFF1D1083812F0E94D608D2
S11309303FEF81EE94E0315080409040E1F700C0F9
S113094000006CE0600F82E00E94EE088AE20E94E0
S1130950D6082FEF30E782E0215030408040E1F7A5
S113096000C0000063E070E06C0F7D1F6E0D7F1D02
S1130970C70180589F4F0E9424078FE19EE401978E
S1130980F1F700C000000F5F043008F4B5CF44E075
S1130990BE016D5F7F4FCE0107960E9457008130E4
S11309A009F50E94FC0887EC91E00E94D90861E0F7
S11309B082E00E94EE0889EE91E00E94D9089FEF40
S11309C024E33CE0915020403040E1F700C00000B7
S11309D080E00E940A090E940B0C0E94FC08C12CB2
S11309E082E031C0C3940E94FC0880E092E00E943F
S11309F0D90861E082E00E94EE088DED91E00E944A
S1130A00D90883E38C190E94D6088FEF99E628E170
S1130A10815090402040E1F700C000000E94FC0893
S1130A2032E03C1578F461E080E990E00E94F3063E
S1130A308FE19EE40197F1F700C0000081E0898313
S1130A400FEF08C08D2D0FEF01C08D2D823009F0FE
S1130A5036CFD82EDD2009F4CDCD01E0ACC1802FF6
S1130A6090E0FC013197EA30F10508F0A4C1E65D9D
S1130A70FF4F0C94460E0E94FC088BE092E00E940B
S1130A80D90861E082E00E94EE0891E0D91205C025
S1130A908BE192E00E94D90807C022E0D21204C080
S1130AA08BE292E00E94D9088D2D0E946D00182FD0
S1130AB03FEF80E792E0315080409040E1F700C082
S1130AC00000113301F1123301F1133301F1143336
S1130AD019F422E0D216E9F0143319F431E0D316F4
S1130AE0D1F01F3FC9F00E94FC0889EC90E00E94FD
S1130AF0D9088FEF94E32CE0815090402040E1F737
S1130B0000C0000009C003E007C004E005C005E020
S1130B1003C006E001C002E01153143008F44BC1D5
S1130B208091A202882309F4A6CF45C10E94FC0843
S1130B308BE392E00E94D90861E082E00E94EE0813
S1130B408EE492E00E94D9088D2D0E946D00182F2A
S1130B503FEF80E792E0315080409040E1F700C0E1
S1130B6000001133C1F01233C1F01333C1F0143358
S1130B70C1F01F3FB9F00E94FC0889EC90E00E948C
S1130B80D9082FEF34E38CE0215030408040E1F766
S1130B9000C0000007C006E005C007E003C008E08D
S1130BA001C001E01153143008F405C18091A20280
S1130BB0882309F4BBCFFFC00E94FC088FE592E0B4
S1130BC00E94D90861E082E00E94EE0882E792E088
S1130BD00E94D9088D2D0E946D00182F9FEF20E7E9
S1130BE032E0915020403040E1F700C000008133F2
S1130BF0B1F08233B1F08033B1F08F3FA9F00E949D
S1130C00FC0889EC90E00E94D9088FEF94E32CE073
S1130C10815090402040E1F700C0000005C00AE088
S1130C2003C009E001C002E01053133008F4C3C04C
S1130C308091A202882309F4BFCFBDC06D2D83E04B
S1130C400E94A20001E0B7C06D2D84E00E94A200C2
S1130C5001E0B1C06D2D85E00E94A20001E0ABC0AF
S1130C606D2D86E00E94A20032E0D3129DC001E007
S1130C70A2C06D2D87E00E94A20002E09CC06D2DF1
S1130C8089E00E94A20008E096C00E94FC0883E864
S1130C9092E00E94D9088FED0E94D60883E40E9456
S1130CA0D6086BE081E00E94EE088FEF91EE24E01D
S1130CB0815090402040E1F700C000008D2D0E943B
S1130CC06D003FE79AE126E0315090402040E1F783
S1130CD000C000009091A202913009F467C010EDA9
S1130CE0180F1A3080F00E94FC0889EC90E00E94F2
S1130CF0D9083FEF84E39CE0315080409040E1F715
S1130D0000C0000048C00E94D6088D2D0E946D00CE
S1130D102FE73AE196E0215030409040E1F700C0DF
S1130D2000009091A202913009F442C00F2EF0ED20
S1130D30FF2EF02DF80E29E02F1580F40E94FC08F8
S1130D4089EC90E00E94D9083FEF84E39CE03150A5
S1130D5080409040E1F700C000001DC00E94D6080A
S1130D60110F012F000F000F100F012F0F0D802FF7
S1130D700E94C90D0E94FC0881E992E00E94D908F2
S1130D802FEF34E38CE0215030408040E1F700C085
S1130D90000001C000E001110DC08091A20288236F
S1130DA009F473CF08E007C002E005C008E003C0FF
S1130DB008E001C008E08091A202813009F04FCE22
S1130DC0F0CB61E087E00E94B009089561E087E01C
S1130DD00E94370A089560E087E00E94370A089568
S1130DE00E94920D08951F93CF93DF93EC01162F69
S1130DF00E949E0D0E94BA0D8830E9F4CE01882726
S1130E009770880F892F881F990B9195806A0E948B
S1130E10A70D0E94BA0D883181F48C2F0E94A70D72
S1130E200E94BA0D883259F4812F0E94A70D0E94A6
S1130E30A40D81E005C080E003C080E001C080E033
S1130E40DF91CF911F9108950F931F93CF93DF9359
S1130E50EC018B010E949E0D0E94BA0D883071F541
S1130E60CE0188279770880F892F881F990B919539
S1130E70806A0E94A70D0E94BA0D883109F58C2F53
S1130E800E94A70D0E94BA0D8832E1F40E949E0DC3
S1130E900E94BA0D8031C1F481EA0E94A70D0E941C
S1130EA0BA0D803499F4C8010E94AE0D0E94BA0DA7
S1130EB0883571F40E94A40D81E00BC080E009C064
S1130EC080E007C080E005C080E003C080E001C08E
S1130ED080E0DF91CF911F910F9108951092CA0283
S1130EE027C0F0E0EA59FF4F61E080810E94B00919
S1130EF0E091CA02F0E0EE59FF4F60E080810E9469
S1130F00B009E091CA02F0E0EE59FF4F61E0808140
S1130F100E94370AE091CA02F0E0EA59FF4F61E00B
S1130F2080810E94370A8091CA028F5F8093CA022F
S1130F30E091CA02E430A8F20895CF931092CA0255
S1130F40CFEF41C0F0E0EA59FF4F60E080810E949A
S1130F50370A1092CB0225C0F0E0EE59FF4F808192
S1130F600E94BE0A811118C0E091CB02F0E0EE5954
S1130F70FF4F80810E94BE0A8823B1F3E091CA0228
S1130F80F0E08091CB02EE0FFF1FEE0FFF1FE6593A
S1130F90FF4FE80FF11DC0818091CB028F5F8093DA
S1130FA0CB02E091CB02E430B8F2E091CA02F0E067
S1130FB0EA59FF4F61E080810E94370A8091CA029A
S1130FC08F5F8093CA02E091CA02E43008F4BACF7A
S1130FD08C2FCF910895CF93C82F60E083E00E94B7
S1130FE0370AC4FB662760F988E00E94370AC5FB0C
S1130FF0662760F989E00E94370AC6FB662760F914
S11310008AE00E94370A6C2F661F6627661F8CE0F1
S11310100E94370A61E082E00E94370A8FEC97E071
S11310200197F1F700C0000060E082E00E94370AF7
S11310306C2F617088E00E94370AC1FB662760F953
S113104089E00E94370AC2FB662760F98AE00E94A1
S1131050370AC3FB662760F98CE00E94370A61E017
S113106082E00E94370A8FEC97E00197F1F700C005
S1131070000060E082E00E94370A8FEC97E001975D
S1131080F1F700C00000CF910895CF93C82F61E01D
S113109083E00E94370AC4FB662760F988E00E9457
S11310A0370AC5FB662760F989E00E94370AC6FB48
S11310B0662760F98AE00E94370A6C2F661F66274C
S11310C0661F8CE00E94370A61E082E00E94370AC2
S11310D08FEC97E00197F1F700C0000060E082E038
S11310E00E94370A6C2F617088E00E94370AC1FBA6
S11310F0662760F989E00E94370AC2FB662760F917
S11311008AE00E94370AC3FB662760F98CE00E94DC
S1131110370A61E082E00E94370A8FEC97E001977A
S1131120F1F700C0000060E082E00E94370A8FEC13
S113113097E00197F1F700C00000CF91089561E0B6
S113114083E00E94B00961E082E00E94B00961E09E
S113115088E00E94B00961E089E00E94B00961E082
S11311608AE00E94B00961E08CE00E94B0092FE798
S113117088E391E0215080409040E1F700C00000F6
S113118082E00E94EB0788E20E94EB078CE00E9459
S1131190EB0781E00E94EB078FEC97E00197F1F7F2
S11311A000C0000086E00E94EB0708950E944508F5
S11311B008950F931F93CF93009761F08C01C0E0C3
S11311C003C00E94D608CF5FF801EC0FF11D8081A7
S11311D08111F7CFCF911F910F910895813019F4A8
S11311E08FE7860F06C0823019F48FEB860F01C09B
S11311F080E80E94EB07089581E00E94EB078FECE2
S113120097E00197F1F700C00000089561E00E94A3
S1131210B009089561E00E94370A089560E00E94D1
S1131220370A089561E084E00E94B00961E085E036
S11312300E94B00961E08DE00E94B00961E08EE097
S11312400E94B00961E08FE10E94B00961E086E08C
S11312500E94B00960E084E00E94370A60E085E003
S11312600E94370A0895EF92FF921F93CF93DF9362
S11312707B01CDEC8C9FC12D1124C695C695C695D6
S11312802C2F220F922F990F990F920FD82FD91B21
S113129010E04BC060E084E00E94370A61E085E022
S11312A00E94370A6D2F61708DE00E94370AD1FBCE
S11312B0662760F98EE00E94370AD2FB662760F940
S11312C08FE10E94370AD3FB662760F986E00E940B
S11312D0370A8FE39FE10197F1F700C0000060E057
S11312E085E00E94370A61E084E00E94370A6C2F8F
S11312F061708DE00E94370AC1FB662760F98EE0B9
S11313000E94370AC2FB662760F98FE10E94370A00
S1131310C3FB662760F986E00E94370A8FE39FE1EA
S11313200197F1F700C000001F5F812F90E0970143
S113133036952795369527953695279582179307E1
S113134008F4A8CF60E084E00E94370A60E085E0FA
S11313500E94370ADF91CF911F91FF90EF9008957B
S1131360982F9695969596958770662309F43FC0B5
S1131370613009F07BC0913099F028F09230E9F0A7
S1131380933041F108954AB321E030E0B90102C03D
S1131390660F771F8A95E2F7CB01842B8ABB0895E9
S11313A047B321E030E0B90102C0660F771F8A9588
S11313B0E2F7CB01842B87BB089544B321E030E0EE
S11313C0B90102C0660F771F8A95E2F7CB01842B1F
S11313D084BB089541B321E030E0B90102C0660F37
S11313E0771F8A95E2F7CB01842B81BB0895913056
S11313F0A1F028F09230F9F0933059F108954AB3EE
S113140021E030E0B90102C0660F771F8A95E2F748
S1131410CB01809584238ABB089547B321E030E053
S1131420B90102C0660F771F8A95E2F7CB01809558
S1131430842387BB089544B321E030E0B90102C09E
S1131440660F771F8A95E2F7CB018095842384BBCE
S1131450089541B321E030E0B90102C0660F771F5F
S11314608A95E2F7CB018095842381BB0895982F58
S11314709695969596958770662309F43FC06130DA
S113148009F07BC0913099F028F09230E9F0933064
S113149041F108954BB321E030E0B90102C0660F79
S11314A0771F8A95E2F7CB01842B8BBB089548B351
S11314B021E030E0B90102C0660F771F8A95E2F798
S11314C0CB01842B88BB089545B321E030E0B901FA
S11314D002C0660F771F8A95E2F7CB01842B85BB88
S11314E0089542B321E030E0B90102C0660F771FCE
S11314F08A95E2F7CB01842B82BB08959130A1F049
S113150028F09230F9F0933059F108954BB321E06B
S113151030E0B90102C0660F771F8A95E2F7CB016C
S1131520809584238BBB089548B321E030E0B90152
S113153002C0660F771F8A95E2F7CB01809584235A
S113154088BB089545B321E030E0B90102C0660FBD
S1131550771F8A95E2F7CB018095842385BB089594
S113156042B321E030E0B90102C0660F771F8A95CB
S1131570E2F7CB018095842382BB0895982F96953A
S113158096959695482F4770913081F028F09230C7
S1131590B9F09330F9F028C099B3892F90E002C0D4
S11315A0959587954A95E2F78170089526B330E0C2
S11315B0C90102C0959587954A95E2F7817008950F
S11315C023B330E0C90102C0959587954A95E2F7A7
S11315D08170089520B330E0C90102C095958795C4
S11315E04A95E2F78170089580E00895813049F1C9
S11315F020F0823009F449C008956130D9F028F010
S1131600623089F0633041F0089585B78E7F85BFDD
S113161085B78D7F85BF089585B7816085BF85B700
S11316208D7F85BF089585B78E7F85BF85B782601E
S113163085BF089585B7816085BF85B7826085BF02
S113164008956130D9F028F0623089F0633041F0B8
S1131650089585B78B7F85BF85B7877F85BF08953C
S113166085B7846085BF85B7877F85BF089585B7B3
S11316708B7F85BF85B7886085BF089585B78460F3
S113168085BF85B7886085BF0895613031F06230C9
S113169041F484B78F7B84BF089584B7806484BF8A
S11316A0089584B78F7B84BF0895813041F018F08A
S11316B0823049F008958BB780648BBF08958BB74F
S11316C080688BBF08958BB780628BBF08956115C6
S11316D07105A1F0813049F018F0823059F0089575
S11316E07093A8026093A70208957093A602609372
S11316F0A50208957093A4026093A30208951F9213
S11317000F920FB60F9211242F933F934F935F9331
S11317106F937F938F939F93AF93BF93EF93FF93B5
S1131720E091A702F091A802309709F00995FF9182
S1131730EF91BF91AF919F918F917F916F915F9145
S11317404F913F912F910F900FBE0F901F901895BE
S11317501F920F920FB60F9211242F933F934F9322
S11317605F936F937F938F939F93AF93BF93EF9305
S1131770FF93E091A502F091A602309709F0099534
S1131780FF91EF91BF91AF919F918F917F916F9155
S11317905F914F913F912F910F900FBE0F901F902B
S11317A018951F920F920FB60F9211242F933F9307
S11317B04F935F936F937F938F939F93AF93BF9355
S11317C0EF93FF93E091A302F091A402309709F004
S11317D00995FF91EF91BF91AF919F918F917F9167
S11317E06F915F914F913F912F910F900FBE0F908A
S11317F01F9018958FB780688FBF089583B78F7B2C
S113180083BF83B7877F83BF83B78F7C83BF83B74F
S113181083BF82E0089583B7887F83BF83B78560E1
S113182083BF82E0089583B7887F83BF82E00895F1
S1131830882319F0813031F00AC089B7816089BFEB
S113184082E0089589B7826089BF82E0089580E0CC
S113185008951F920F920FB60F9211242F933F9366
S11318604F935F936F937F938F939F93AF93BF93A4
S1131870EF93FF938091AD029091AE02A091AF02DD
S1131880B091B0020196A11DB11D8093AD02909359
S1131890AE02A093AF02B093B0024091B502509152
S11318A0B6026091B7027091B8024F5F5F4F6F4FFD
S11318B07F4F4093B5025093B6026093B702709382
S11318C0B8024091BA025091BB026091BC0270917F
S11318D0BD0284179507A607B70799F48091B9024A
S11318E0819582BF1092AD021092AE021092AF02A7
S11318F01092B002E091B302F091B402309709F073
S11319000995FF91EF91BF91AF919F918F917F9135
S11319106F915F914F913F912F910F900FBE0F9058
S11319201F9018951F920F920FB60F9211242F93A8
S11319303F934F935F936F937F938F939F93AF9353
S1131940BF93EF93FF938091A9029091AA02A09173
S1131950AB02B091AC020196A11DB11D8093A90206
S11319609093AA02A093AB02B093AC024091B5024B
S11319705091B6026091B7027091B8024F5F5F4F09
S11319806F4F7F4F4093B5025093B6026093B702F6
S11319907093B802892B8A2B8B2B79F41092A902AD
S11319A01092AA021092AB021092AC02E091B10222
S11319B0F091B202309709F00995FF91EF91BF9130
S11319C0AF919F918F917F916F915F914F913F91D3
S11319D02F910F900FBE0F901F9018951F920F928A
S11319E00FB60F9211242F933F934F935F936F93EE
S11319F07F938F939F93AF93BF93EF93FF93E09164
S1131A00C402F091C502309709F00995FF91EF9156
S1131A10BF91AF919F918F917F916F915F914F9102
S1131A203F912F910F900FBE0F901F9018951F920A
S1131A300F920FB60F9211242F933F934F935F93FE
S1131A406F937F938F939F93AF93BF93EF93FF9382
S1131A50E091C202F091C302309709F00995FF9119
S1131A60EF91BF91AF919F918F917F916F915F9112
S1131A704F913F912F910F900FBE0F901F9018958B
S1131A801F920F920FB60F9211242F933F934F93EF
S1131A905F936F937F938F939F93AF93BF93EF93D2
S1131AA0FF93E091C002F091C102309709F00995CB
S1131AB0FF91EF91BF91AF919F918F917F916F9122
S1131AC05F914F913F912F910F900FBE0F901F90F8
S1131AD018951F920F920FB60F9211242F933F93D4
S1131AE04F935F936F937F938F939F93AF93BF9322
S1131AF0EF93FF93E091BE02F091BF02309709F09B
S1131B000995FF91EF91BF91AF919F918F917F9133
S1131B106F915F914F913F912F910F900FBE0F9056
S1131B201F90189581B18D7F81B981B18E7F81B964
S1131B3082E080B986B7846086BF089584EA86BF50
S1131B4006B607FEFDCF089584E986BF089583B9DC
S1131B5084E886BF06B607FEFDCF0895FC0196B75C
S1131B609F7B96BF84E886BF06B607FEFDCF83B190
S1131B708083089581B1887F089583E389B98BB107
S1131B808D7F8BB98AB188608AB98AB180618AB93C
S1131B9008955D9BFECF8CB908958CB108958AB1E8
S1131BA080688AB908959093C9028093C802089501
S1131BB01F920F920FB60F9211242F933F934F93BE
S1131BC05F936F937F938F939F93AF93BF93EF93A1
S1131BD0FF93E091C802F091C902309709F009958A
S1131BE0FF91EF91BF91AF919F918F917F916F91F1
S1131BF05F914F913F912F910F900FBE0F901F90C7
S1131C0018951F920F920FB60F9211242F933F93A2
S1131C104F935F936F937F938F939F93AF93BF93F0
S1131C20EF93FF93E091C602F091C702309709F059
S1131C300995FF91EF91BF91AF919F918F917F9102
S1131C406F915F914F913F912F910F900FBE0F9025
S1131C501F901895CF93DF93C091D002D091D102F9
S1131C600E94CD0D8883DF91CF910895CF93DF93A8
S1131C70EC018AE29EE00E94D30D0E94CF0DD09326
S1131C80D102C093D002DF91CF910895EE0FFF1FD0
S10F1C900590F491E02D0994F894FFCF26
S1131C9CFF14141516171B1D12133738392F34352E
S1131CAC362A3132332B63303D2D526F6F6D312018
S1131CBC533A00526F6F6D3220533A00526F6F6D6E
S1131CCC3320533A00526F6F6D3420533A005456FC
S1131CDC20533A0041697220436F6E642E20533AAC
S1131CEC004F4E004F464600312D4F6E20322D4F83
S1131CFC666620302D5245540057726F6E6720690A
S1131D0C6E7075740057656C636F6D6520746F200D
S1131D1C736D61727400686F6D652073797374658B
S1131D2C6D0062793A0041686D65642041746566A2
S1131D3C004C6F67696E20666F720066697273740B
S1131D4C2074696D65005365742041646D696E205F
S1131D5C706173730041646D696E20706173733AC2
S1131D6C005061737320536176656400536574206D
S1131D7C477565737420506173730047756573748C
S1131D8C20506173733A0053657373696F6E2054FA
S1131D9C696D656F7574004C6F67696E20626C6F4A
S1131DAC636B6564007761697420323020736563FA
S1131DBC6F6E64730053656C656374206D6F64653A
S1131DCC203A00303A41646D696E20313A477565AA
S1131DDC73740057726F6E6720696E7075742E0081
S1131DEC41646D696E206D6F646500456E74657237
S1131DFC20506173733A0052696768742070617380
S1131E0C730057726F6E672050617373005472695C
S1131E1C6573206C6566743A004775657374206D40
S1131E2C6F646500456E74657220706173733A005B
S1131E3C57726F6E67207061737300313A526F6F13
S1131E4C6D3120323A526F6F6D3200333A526F6FEC
S1131E5C6D3320343A4D6F72652000333A526F6FF4
S1131E6C6D3320343A526F6F6D3400313A526F6FC8
S1131E7C6D3420202020323A545620202000333A4E
S1131E8C41697220436F6E642E343A5245540031CA
S1131E9C3A5365742074656D7065726174757265FE
S1131EAC2000323A436F6E74726F6C2020303A52B9
S1131EBC4554005365742074656D702E3A5F5F2031
S1131ECC0054656D70657261747572652053656E2E
S1051EDC74008C
S9030000FC
