S02A0000536D6172745F486F6D655F436F6E74726F6C5F4D6963726F636F6E74726F6C6C65722E737265632E
S11300000C942A000C94FD070C9426080C944F08B9
S11300100C9447000C9447000C9447000C94470040
S11300200C9447000C9447000C94A7080C946803A4
S11300300C9447000C9420090C9447000C94490933
S11300400C9447000C9447000C9447000C94470010
S11300500C94470011241FBECFE5D8E0DEBFCDBF0E
S113006010E0A0E6B0E0E8E4F5E102C005900D92EE
S1130070A63BB107D9F720E0A6EBB0E001C01D9282
S1130080A93DB207E1F70E9449000C94A20A0C941E
S1130090000061E082E00E94C50784E00E9405063A
S11300A085E00E94050686E00E9405068AE10E941A
S11300B005068BE10E9405068CE10E9405068DE190
S11300C00E9405068EE10E9405068FE10E94050646
S11300D00E94E3030E94F2030E9411060E94E604B8
S11300E00E9403090E947C0880E00E9496080E94F6
S11300F0780881E690E00E947E09C12CD12CE12C85
S1130100F12C00E010E00E942606873C21E09207D3
S113011028F46FEF82E00E94ED0755C09C012C5C2F
S11301203140263B344028F46FE782E00E94ED071B
S11301304AC09C01225836402334334028F46FE3EC
S113014082E00E94ED073FC09C01255C39402E33BC
S1130150334028F46FE182E00E94ED0734C09C0133
S113016023503D402334334028F46FE082E00E9462
S1130170ED0729C09C01265430412335324028F430
S113018067E082E00E94ED071EC09C0129593241BC
S11301902E38310528F463E082E00E94ED0713C095
S11301A09C01275233412133310528F461E082E078
S11301B00E94ED0708C088559341489720F460E0F9
S11301C082E00E94ED070E9422069C01ADECBCEC8B
S11301D00E94B009969587959695879596958795EB
S11301E09093B9008093B80061E281E00E943505E4
S11301F08AE690E00E94200564E281E00E943505D1
S11302008091B8009091B900282F392F40E050E038
S113021060E070E080E090E00E9451058FED0E9464
S11302201D0583E40E941D0561E282E00E943505FC
S11302308EE690E00E94200564E282E00E9435058B
S11302402091600030E040E050E060E070E080E049
S113025090E00E9451058FED0E941D0583E40E94E9
S11302601D050E942A068093CF0065E182E00E946A
S1130270350582E790E00E9420056CE182E00E944F
S113028035052091CF0030E040E050E060E070E0C0
S113029080E090E00E94510585E20E941D0560E027
S11302A081E00E9435058AE790E00E94200563E022
S11302B081E00E943505111105C08EE790E00E948F
S11302C0200504C082E890E00E94200560E082E0FE
S11302D00E94350586E890E00E94200563E082E0F4
S11302E00E943505011105C08EE790E00E942005AB
S11302F004C082E890E00E94200567E081E00E944B
S113030035058AE890E00E9420056AE081E00E94B9
S11303103505F11005C08EE790E00E94200504C069
S113032082E890E00E94200567E082E00E943505A3
S11303308EE890E00E9420056AE082E00E94350584
S1130340E11005C08EE790E00E94200504C082E819
S113035090E00E9420056EE081E00E94350582E96C
S113036090E00E94200561E181E00E943505D110F2
S113037005C08EE790E00E94200504C082E890E06A
S11303800E9420056EE082E00E94350586E990E037
S11303900E94200561E182E00E943505C11005C07C
S11303A08EE790E00E94200504C082E890E00E945D
S11303B0200565E181E00E9435058AE990E00E940C
S11303C020058091B8009091B9008997B0F480918C
S11303D0D200811112C06CE181E00E94350582EAED
S11303E090E00E94200585E00E94090686E00E94B4
S11303F00D0684E00E940D0633C08091CF00833344
S1130400B0F48091D200811112C06CE181E00E94AD
S1130410350587EA90E00E94200586E00E940906DF
S113042085E00E940D0684E00E940D0619C06CE16F
S113043081E00E9435058CEA90E00E94200584E06A
S11304400E94090686E00E940D0685E00E940D06C2
S113045080E00E940C040E94E80381E08093D200B3
S11304608091CE00813099F46CE10E94350581EBD6
S113047090E00E9420051092D2001092CE0080E0FD
S11304800E941F0484E00E940D060E94ED038091E7
S11304906100843209F4CCC008F5853109F4A4C0A4
S11304A070F4823109F450C018F48131C9F10AC1E1
S11304B0833109F45DC0843109F46EC003C1813213
S11304C009F4A6C020F4863109F47AC0FBC0823254
S11304D009F4A3C0833209F4A5C0F4C0833309F43A
S11304E0D0C060F4863209F4A9C008F4BAC08133DC
S11304F009F4BDC0823309F4BFC0E4C0863309F4F3
S1130500CAC038F4843309F4C1C0853309F4CAC0BD
S1130510D9C0873309F4CBC08F3F09F4CFC0D2C010
S11305208AE10E948D07811103C01092D00007C098
S11305308AE10E948D07813011F48093D00080916C
S1130540D0000E941109DFCD8BE10E948D0781113B
S113055003C01092D00007C08BE10E948D07813048
S113056011F48093D0008091D0000E941109CBCD6A
S11305708CE10E948D07811103C01092D00007C046
S11305808CE10E948D07813011F48093D00080911A
S1130590D0000E941109B7CD8DE10E948D07811111
S11305A003C01092D00007C08DE10E948D078130F6
S11305B011F48093D0008091D0000E941109A3CD42
S11305C08FE10E948D07811103C01092D00007C0F3
S11305D08FE10E948D07813011F48093D0008091C7
S11305E0D0000E9411098FCD8EE10E948D078111E8
S11305F003C01092D00007C08EE10E948D078130A5
S113060011F48093D0008091D0000E9411097BCD19
S11306108AE10E94090611E076CD8BE10E94090669
S113062001E071CD8CE10E940906FF24F3946BCDA7
S11306308DE10E940906EE24E39465CD0E948908A9
S11306408091600090E02091B8003091B900821749
S1130650930708F058CD8FE10E940906CC24C39477
S113066052CD8EE10E940906DD24D3944CCD8AE15B
S11306700E940D0610E047CD8BE10E940D0600E0BC
S113068042CD8CE10E940D06F12C3DCD8DE10E94FE
S11306900D06E12C38CD0E9491088FE10E940D06D1
S11306A0C12C31CD8EE10E940D06D12C2CCD81E0E0
S11306B08093CE008FEF8093610025CD8FEF8093E0
S11306C0610021CD809360008FEF809361001BCD8A
S11306D01F920F920FB60F9211242F933F934F93B3
S11306E05F936F937F938F939F93AF93BF93EF9396
S11306F0FF938091B7008F5F8093B7008091B7001C
S1130700863008F44FC01092B7000E9422069C0164
S1130710ADECBCEC0E94B0099695879596958795AB
S1130720969587959093B9008093B8008091600066
S113073090E001962091B8003091B900281739074C
S113074038F08FE10E94090681E08093B6002AC048
S11307508091600090E001972091B8003091B90039
S11307608217930730F08FE10E940D061092B600B5
S113077019C08091600090E02091B8003091B900D8
S11307808217930779F48091B600813021F48FE1C8
S11307900E94090607C08091B600811103C08FE151
S11307A00E940D06FF91EF91BF91AF919F918F91A0
S11307B07F916F915F914F913F912F910F900FBE59
S11307C00F901F90189561E08FE00E947F060895B6
S11307D061E08FE00E940607089560E08FE00E94C8
S11307E0060708951F93CF93DF9310E00FC0C12F26
S11307F0D0E0CC0FDD1FCE59DF4F61E088810E942D
S11308007F0661E089810E947F061F5F143078F3C0
S1130810DF91CF911F910895CF93DF93C82FD0E03C
S1130820CC0FDD1FCE59DF4F61E088810E9406079F
S113083060E089810E940607DF91CF910895CF93EC
S1130840DF93C82FD0E0CC0FDD1FCE59DF4F61E01E
S113085088810E94060761E089810E940607DF9172
S1130860CF910895CF93C82F60E083E00E940607DC
S1130870C4FB662760F988E00E940607C5FB66276B
S113088060F989E00E940607C6FB662760F98AE0E2
S11308900E9406076C2F661F6627661F8CE00E9465
S11308A0060761E082E00E9406078FEC97E001975B
S11308B0F1F700C0000060E082E00E9406076C2FA0
S11308C0617088E00E940607C1FB662760F989E031
S11308D00E940607C2FB662760F98AE00E940607A9
S11308E0C3FB662760F98CE00E94060761E082E0A2
S11308F00E9406078FEC97E00197F1F700C0000013
S113090060E082E00E9406078FEC97E00197F1F720
S113091000C00000CF910895CF93C82F61E083E019
S11309200E940607C4FB662760F988E00E94060758
S1130930C5FB662760F989E00E940607C6FB6627A7
S113094060F98AE00E9406076C2F661F6627661FFF
S11309508CE00E94060761E082E00E9406078FECAB
S113096097E00197F1F700C0000060E082E00E9488
S113097006076C2F617088E00E940607C1FB66279A
S113098060F989E00E940607C2FB662760F98AE0E5
S11309900E940607C3FB662760F98CE00E940607E5
S11309A061E082E00E9406078FEC97E00197F1F77F
S11309B000C0000060E082E00E9406078FEC97E030
S11309C00197F1F700C00000CF91089561E083E042
S11309D00E947F0661E082E00E947F0661E088E079
S11309E00E947F0661E089E00E947F0661E08AE060
S11309F00E947F0661E08CE00E947F062FE788E377
S1130A0091E0215080409040E1F700C0000082E076
S1130A100E94320488E20E9432048CE00E94320474
S1130A2081E00E9432048FEC97E00197F1F700C057
S1130A30000086E00E94320408950E948C04089508
S1130A400F931F93CF93009761F08C01C0E003C014
S1130A500E941D05CF5FF801EC0FF11D808181110B
S1130A60F7CFCF911F910F910895813029F480E839
S1130A70860F0E9432040895823029F480EC860F98
S1130A800E9432040895833029F484E9860F0E9479
S1130A9032040895843021F484ED860F0E943204D8
S1130AA008952F923F924F925F926F927F928F920E
S1130AB09F92AF92BF92CF92DF92EF92FF920F93E9
S1130AC01F93CF93DF93CDB7DEB767970FB6F89434
S1130AD0DEBF0FBECDBF2D8B3E8B4F8B852E762E6A
S1130AE0672E382E292EA0E00E94960A19F480E37E
S1130AF00E941D052D893E894F89582D672D762D1D
S1130B00832D922DA0E00E94960AACF48DE20E94FF
S1130B101D052D893E894F89582D672D762D832DEE
S1130B20922D0E944F0A2D8B3E8B4F8B852E762E55
S1130B30672E382E292E912C32C0492C512C0F2E81
S1130B40FAE0AF2EF02DB12CC12CD12CE12CF12CDC
S1130B5000E010E02D893E894F89582D672D762DB0
S1130B60832D922D0E94BF09E1E0F0E0EC0FFD1F00
S1130B70E40DF51D205D20832D893E894F89582D74
S1130B80672D762D832D922D0E94C1092D8B3E8BCE
S1130B904F8B852E762E672E382E292E93942D89F1
S1130BA03E894F89582D672D762D832D922DA0E0F7
S1130BB00E94960A09F00CF69A940CC0E1E0F0E069
S1130BC0EC0FFD1FE90DF11D97FCFA9580810E9441
S1130BD01D059A94992094F767960FB6F894DEBF92
S1130BE00FBECDBFDF91CF911F910F91FF90EF907A
S1130BF0DF90CF90BF90AF909F908F907F906F9039
S1130C005F904F903F902F90089561E00E947F067F
S1130C10089561E00E940607089560E00E940607B7
S1130C20089566E081E00E943A0660E080E00E9458
S1130C307F0660E081E00E947F0660E087E00E941A
S1130C407F06089580E00E947006089587E00E9460
S1130C507006089581E00E9462069C01A4E6B0E05B
S1130C600E94B0092FEF33E040E050E00E948E096B
S1130C70822F0895813059F018F0833079F014C030
S1130C8087B18F7787B987B18F7B87B90DC087B15B
S1130C908F7787B987B1806487B906C087B18068C8
S1130CA087B987B1806487B986B1887F86B9677050
S1130CB086B1682B66B987B18F7D87B986B18068A4
S1130CC086B9089597B1907E97B997B1892B87B962
S1130CD086B1806486B93699FECF84B195B1089502
S1130CE00E9462069C01A8E8B3E10E94B0092FEFBC
S1130CF033E040E050E00E948E09C9010895982F26
S1130D009695969596958770662309F43FC0613051
S1130D1009F07BC0913099F028F09230E9F09330DB
S1130D2041F108954AB321E030E0B90102C0660FF1
S1130D30771F8A95E2F7CB01842B8ABB089547B3CA
S1130D4021E030E0B90102C0660F771F8A95E2F70F
S1130D50CB01842B87BB089544B321E030E0B90173
S1130D6002C0660F771F8A95E2F7CB01842B84BB00
S1130D70089541B321E030E0B90102C0660F771F46
S1130D808A95E2F7CB01842B81BB08959130A1F0C1
S1130D9028F09230F9F0933059F108954AB321E0E4
S1130DA030E0B90102C0660F771F8A95E2F7CB01E4
S1130DB0809584238ABB089547B321E030E0B901CC
S1130DC002C0660F771F8A95E2F7CB0180958423D2
S1130DD087BB089544B321E030E0B90102C0660F37
S1130DE0771F8A95E2F7CB018095842384BB08950D
S1130DF041B321E030E0B90102C0660F771F8A9544
S1130E00E2F7CB018095842381BB0895982F9695B2
S1130E10969596958770662309F43FC0613009F072
S1130E207BC0913099F028F09230E9F0933041F191
S1130E3008954BB321E030E0B90102C0660F771F7B
S1130E408A95E2F7CB01842B8BBB089548B321E04C
S1130E5030E0B90102C0660F771F8A95E2F7CB0133
S1130E60842B88BB089545B321E030E0B90102C06A
S1130E70660F771F8A95E2F7CB01842B85BB089513
S1130E8042B321E030E0B90102C0660F771F8A95B2
S1130E90E2F7CB01842B82BB08959130A1F028F0B6
S1130EA09230F9F0933059F108954BB321E030E0DA
S1130EB0B90102C0660F771F8A95E2F7CB018095CE
S1130EC084238BBB089548B321E030E0B90102C00C
S1130ED0660F771F8A95E2F7CB018095842388BB40
S1130EE0089545B321E030E0B90102C0660F771FD1
S1130EF08A95E2F7CB018095842385BB089542B39C
S1130F0021E030E0B90102C0660F771F8A95E2F74D
S1130F10CB018095842382BB0895982F969596954E
S1130F209695482F4770913081F028F09230B9F0AF
S1130F309330F9F028C099B3892F90E002C09595B9
S1130F4087954A95E2F78170089526B330E0C90188
S1130F5002C0959587954A95E2F78170089523B369
S1130F6030E0C90102C0959587954A95E2F78170F2
S1130F70089520B330E0C90102C0959587954A953C
S1130F80E2F78170089580E008956623B1F061303E
S1130F9019F5813049F028F0823049F0833051F05E
S1130FA008958FEF8ABB08958FEF87BB08958FEF65
S1130FB084BB08958FEF81BB0895813041F028F000
S1130FC0823039F0833039F008951ABA089517BA87
S1130FD0089514BA089511BA0895813041F028F0A3
S1130FE0823039F0833039F008956BBB089568BBC3
S1130FF0089565BB089562BB08951F920F920FB6C2
S11310000F9211242F933F934F935F936F937F938A
S11310108F939F93AF93BF93EF93FF93E091BE00A1
S1131020F091BF00309709F00995FF91EF91BF91BE
S1131030AF919F918F917F916F915F914F913F916C
S11310402F910F900FBE0F901F9018951F920F9223
S11310500FB60F9211242F933F934F935F936F9387
S11310607F938F939F93AF93BF93EF93FF93E091FD
S1131070BC00F091BD00309709F00995FF91EF9104
S1131080BF91AF919F918F917F916F915F914F919C
S11310903F912F910F900FBE0F901F9018951F92A4
S11310A00F920FB60F9211242F933F934F935F9398
S11310B06F937F938F939F93AF93BF93EF93FF931C
S11310C0E091BA00F091BB00309709F00995FF91C7
S11310D0EF91BF91AF919F918F917F916F915F91AC
S11310E04F913F912F910F900FBE0F901F90189525
S11310F08FB780688FBF089583B78F7B83BF83B713
S1131100877F83BF83B78F7C83BF83B783BF82E02E
S1131110089583B7887F83BF83B7856083BF82E0E8
S1131120089583B7887F83BF82E00895882319F0E8
S1131130813031F00AC089B7816089BF82E00895A7
S113114089B7826089BF82E0089580E008951F9284
S11311500F920FB60F9211242F933F934F935F93E7
S11311606F937F938F939F93AF93BF93EF93FF936B
S11311708091C0009091C100A091C200B091C300C1
S11311800196A11DB11D8093C0009093C100A0934E
S1131190C200B093C3004091C6005091C700609153
S11311A0C8007091C9004F5F5F4F6F4F7F4F4093EE
S11311B0C6005093C7006093C8007093C900892B80
S11311C08A2B8B2B79F41092C0001092C1001092DC
S11311D0C2001092C300E091C400F091C5003097A2
S11311E009F00995FF91EF91BF91AF919F918F9174
S11311F07F916F915F914F913F912F910F900FBE0F
S11312000F901F90189583E389B98BB18D7F8BB9AB
S11312108AB188608AB98AB180618AB90E947808E3
S113122008955D9BFECF8CB908958CB108958AB161
S113123080688AB908959093CD008093CC00089576
S11312401F920F920FB60F9211242F933F934F9337
S11312505F936F937F938F939F93AF93BF93EF931A
S1131260FF93E091CC00F091CD00309709F00995FF
S1131270FF91EF91BF91AF919F918F917F916F916A
S11312805F914F913F912F910F900FBE0F901F9040
S113129018951F920F920FB60F9211242F933F931C
S11312A04F935F936F937F938F939F93AF93BF936A
S11312B0EF93FF93E091CA00F091CB00309709F0CF
S11312C00995FF91EF91BF91AF919F918F917F917C
S11312D06F915F914F913F912F910F900FBE0F909F
S11312E01F901895CF93DF93C091D700D091D80069
S11312F00E9415098883DF91CF910895CF93DF93DE
S1131300EC0182E799E00E941B090E941709D0931F
S1131310D800C093D700DF91CF910895A1E21A2E8F
S1131320AA1BBB1BFD010DC0AA1FBB1FEE1FFF1F85
S1131330A217B307E407F50720F0A21BB30BE40BD5
S1131340F50B661F771F881F991F1A9469F760951C
S11313507095809590959B01AC01BD01CF010895D6
S1131360A29FB001B39FC001A39F700D811D1124E2
S1131370911DB29F700D811D1124911D08956894D3
S113138001C0E894F92FF12B12F00C94F309A0E0BA
S1131390B0E0EDECF9E00C94650A092E059422F412
S11313A00E944F0A112392F4F0E80F26FFEFE09415
S11313B0F09400951095B094C094D094A194BF0A71
S11313C0CF0ADF0AEF0AFF0A0F0B1F0B0E94FE0968
S11313D007FC0E944F0ACDB7DEB7ECE00C94810AFB
S11313E0689401C0E8948F929F92CF93DF930E94F8
S11313F0FE09DF91CF919F908F90089588249924BE
S1131400F401E401B0E49F93AA279A158B049C0489
S1131410ED05FE05CF05D007A10798F4AD2FDC2F0D
S1131420CF2FFE2FE92D982C892E982F872F762FDA
S1131430652F542F432F322F2227B85031F7BF91F5
S113144027C01B2EBF91BB27220F331F441F551FDC
S1131450661F771F881F991F881C991CEE1FFF1F8A
S1131460CC1FDD1FAA1FBB1F8A149B04EC05FD05BE
S1131470CE05DF05A007B10748F08A189B08EC09E0
S1131480FD09CE09DF09A00BB10B21601A94E1F626
S11314902EF49401AF01BE01CD01000C08956095B6
S11314A070958095909530954095509521953F4F36
S11314B04F4F5F4F6F4F7F4F8F4F9F4F08952F9226
S11314C03F924F925F926F927F928F929F92AF92D0
S11314D0BF92CF92DF92EF92FF920F931F93CF931D
S11314E0DF93CDB7DEB7CA1BDB0B0FB6F894DEBFB4
S11314F00FBECDBF09942A88398848885F846E84DA
S11315007D848C849B84AA84B984C884DF80EE8023
S1131510FD800C811B81AA81B981CE0FD11D0FB62C
S1131520F894DEBF0FBECDBFED0108950024A7FDE2
S113153000942A17300540055005600570058005A4
S10B154090050895F894FFCF13
S113154818180D0E0D0E0D0E0D0E43543A0052547C
S11315583A00536D6F6B65203A0052313A006F665A
S113156866006F6E200052323A0052333A00523409
S11315783A0054563A0041433A00537461747573FF
S11315883A0046696E65004865617400466972658B
S109159800446F6E6500C3
S9030000FC
